{
  "_format": "hh-sol-artifact-1",
  "contractName": "Colors",
  "sourceName": "contracts/Colors.sol",
  "abi": [
    {
      "inputs": [],
      "stateMutability": "nonpayable",
      "type": "constructor"
    },
    {
      "anonymous": false,
      "inputs": [
        {
          "indexed": true,
          "internalType": "address",
          "name": "owner",
          "type": "address"
        },
        {
          "indexed": true,
          "internalType": "address",
          "name": "approved",
          "type": "address"
        },
        {
          "indexed": true,
          "internalType": "uint256",
          "name": "tokenId",
          "type": "uint256"
        }
      ],
      "name": "Approval",
      "type": "event"
    },
    {
      "anonymous": false,
      "inputs": [
        {
          "indexed": true,
          "internalType": "address",
          "name": "owner",
          "type": "address"
        },
        {
          "indexed": true,
          "internalType": "address",
          "name": "operator",
          "type": "address"
        },
        {
          "indexed": false,
          "internalType": "bool",
          "name": "approved",
          "type": "bool"
        }
      ],
      "name": "ApprovalForAll",
      "type": "event"
    },
    {
      "anonymous": false,
      "inputs": [
        {
          "indexed": true,
          "internalType": "address",
          "name": "previousOwner",
          "type": "address"
        },
        {
          "indexed": true,
          "internalType": "address",
          "name": "newOwner",
          "type": "address"
        }
      ],
      "name": "OwnershipTransferred",
      "type": "event"
    },
    {
      "anonymous": false,
      "inputs": [
        {
          "indexed": false,
          "internalType": "address",
          "name": "account",
          "type": "address"
        }
      ],
      "name": "Paused",
      "type": "event"
    },
    {
      "anonymous": false,
      "inputs": [
        {
          "indexed": true,
          "internalType": "address",
          "name": "from",
          "type": "address"
        },
        {
          "indexed": true,
          "internalType": "address",
          "name": "to",
          "type": "address"
        },
        {
          "indexed": true,
          "internalType": "uint256",
          "name": "tokenId",
          "type": "uint256"
        }
      ],
      "name": "Transfer",
      "type": "event"
    },
    {
      "anonymous": false,
      "inputs": [
        {
          "indexed": false,
          "internalType": "address",
          "name": "account",
          "type": "address"
        }
      ],
      "name": "Unpaused",
      "type": "event"
    },
    {
      "inputs": [
        {
          "internalType": "address",
          "name": "to",
          "type": "address"
        },
        {
          "internalType": "uint256",
          "name": "tokenId",
          "type": "uint256"
        }
      ],
      "name": "approve",
      "outputs": [],
      "stateMutability": "nonpayable",
      "type": "function"
    },
    {
      "inputs": [
        {
          "internalType": "address",
          "name": "owner",
          "type": "address"
        }
      ],
      "name": "balanceOf",
      "outputs": [
        {
          "internalType": "uint256",
          "name": "",
          "type": "uint256"
        }
      ],
      "stateMutability": "view",
      "type": "function"
    },
    {
      "inputs": [],
      "name": "cost",
      "outputs": [
        {
          "internalType": "uint256",
          "name": "",
          "type": "uint256"
        }
      ],
      "stateMutability": "view",
      "type": "function"
    },
    {
      "inputs": [
        {
          "internalType": "uint256",
          "name": "tokenId",
          "type": "uint256"
        }
      ],
      "name": "getApproved",
      "outputs": [
        {
          "internalType": "address",
          "name": "",
          "type": "address"
        }
      ],
      "stateMutability": "view",
      "type": "function"
    },
    {
      "inputs": [
        {
          "internalType": "address",
          "name": "owner",
          "type": "address"
        },
        {
          "internalType": "address",
          "name": "operator",
          "type": "address"
        }
      ],
      "name": "isApprovedForAll",
      "outputs": [
        {
          "internalType": "bool",
          "name": "",
          "type": "bool"
        }
      ],
      "stateMutability": "view",
      "type": "function"
    },
    {
      "inputs": [],
      "name": "maxMintAmount",
      "outputs": [
        {
          "internalType": "uint256",
          "name": "",
          "type": "uint256"
        }
      ],
      "stateMutability": "view",
      "type": "function"
    },
    {
      "inputs": [],
      "name": "maxSupply",
      "outputs": [
        {
          "internalType": "uint256",
          "name": "",
          "type": "uint256"
        }
      ],
      "stateMutability": "view",
      "type": "function"
    },
    {
      "inputs": [
        {
          "internalType": "address",
          "name": "_to",
          "type": "address"
        },
        {
          "internalType": "uint256",
          "name": "_mintAmount",
          "type": "uint256"
        }
      ],
      "name": "mint",
      "outputs": [],
      "stateMutability": "payable",
      "type": "function"
    },
    {
      "inputs": [],
      "name": "name",
      "outputs": [
        {
          "internalType": "string",
          "name": "",
          "type": "string"
        }
      ],
      "stateMutability": "view",
      "type": "function"
    },
    {
      "inputs": [],
      "name": "owner",
      "outputs": [
        {
          "internalType": "address",
          "name": "",
          "type": "address"
        }
      ],
      "stateMutability": "view",
      "type": "function"
    },
    {
      "inputs": [
        {
          "internalType": "uint256",
          "name": "tokenId",
          "type": "uint256"
        }
      ],
      "name": "ownerOf",
      "outputs": [
        {
          "internalType": "address",
          "name": "",
          "type": "address"
        }
      ],
      "stateMutability": "view",
      "type": "function"
    },
    {
      "inputs": [],
      "name": "pause",
      "outputs": [],
      "stateMutability": "nonpayable",
      "type": "function"
    },
    {
      "inputs": [],
      "name": "paused",
      "outputs": [
        {
          "internalType": "bool",
          "name": "",
          "type": "bool"
        }
      ],
      "stateMutability": "view",
      "type": "function"
    },
    {
      "inputs": [],
      "name": "renounceOwnership",
      "outputs": [],
      "stateMutability": "nonpayable",
      "type": "function"
    },
    {
      "inputs": [
        {
          "internalType": "address",
          "name": "from",
          "type": "address"
        },
        {
          "internalType": "address",
          "name": "to",
          "type": "address"
        },
        {
          "internalType": "uint256",
          "name": "tokenId",
          "type": "uint256"
        }
      ],
      "name": "safeTransferFrom",
      "outputs": [],
      "stateMutability": "nonpayable",
      "type": "function"
    },
    {
      "inputs": [
        {
          "internalType": "address",
          "name": "from",
          "type": "address"
        },
        {
          "internalType": "address",
          "name": "to",
          "type": "address"
        },
        {
          "internalType": "uint256",
          "name": "tokenId",
          "type": "uint256"
        },
        {
          "internalType": "bytes",
          "name": "_data",
          "type": "bytes"
        }
      ],
      "name": "safeTransferFrom",
      "outputs": [],
      "stateMutability": "nonpayable",
      "type": "function"
    },
    {
      "inputs": [
        {
          "internalType": "address",
          "name": "operator",
          "type": "address"
        },
        {
          "internalType": "bool",
          "name": "approved",
          "type": "bool"
        }
      ],
      "name": "setApprovalForAll",
      "outputs": [],
      "stateMutability": "nonpayable",
      "type": "function"
    },
    {
      "inputs": [
        {
          "internalType": "uint256",
          "name": "tokenId",
          "type": "uint256"
        },
        {
          "internalType": "string",
          "name": "_tokenURI",
          "type": "string"
        }
      ],
      "name": "setTokenURI",
      "outputs": [],
      "stateMutability": "nonpayable",
      "type": "function"
    },
    {
      "inputs": [
        {
          "internalType": "bytes4",
          "name": "interfaceId",
          "type": "bytes4"
        }
      ],
      "name": "supportsInterface",
      "outputs": [
        {
          "internalType": "bool",
          "name": "",
          "type": "bool"
        }
      ],
      "stateMutability": "view",
      "type": "function"
    },
    {
      "inputs": [],
      "name": "symbol",
      "outputs": [
        {
          "internalType": "string",
          "name": "",
          "type": "string"
        }
      ],
      "stateMutability": "view",
      "type": "function"
    },
    {
      "inputs": [
        {
          "internalType": "uint256",
          "name": "index",
          "type": "uint256"
        }
      ],
      "name": "tokenByIndex",
      "outputs": [
        {
          "internalType": "uint256",
          "name": "",
          "type": "uint256"
        }
      ],
      "stateMutability": "view",
      "type": "function"
    },
    {
      "inputs": [
        {
          "internalType": "address",
          "name": "owner",
          "type": "address"
        },
        {
          "internalType": "uint256",
          "name": "index",
          "type": "uint256"
        }
      ],
      "name": "tokenOfOwnerByIndex",
      "outputs": [
        {
          "internalType": "uint256",
          "name": "",
          "type": "uint256"
        }
      ],
      "stateMutability": "view",
      "type": "function"
    },
    {
      "inputs": [
        {
          "internalType": "uint256",
          "name": "tokenId",
          "type": "uint256"
        }
      ],
      "name": "tokenURI",
      "outputs": [
        {
          "internalType": "string",
          "name": "",
          "type": "string"
        }
      ],
      "stateMutability": "view",
      "type": "function"
    },
    {
      "inputs": [],
      "name": "totalSupply",
      "outputs": [
        {
          "internalType": "uint256",
          "name": "",
          "type": "uint256"
        }
      ],
      "stateMutability": "view",
      "type": "function"
    },
    {
      "inputs": [
        {
          "internalType": "address",
          "name": "from",
          "type": "address"
        },
        {
          "internalType": "address",
          "name": "to",
          "type": "address"
        },
        {
          "internalType": "uint256",
          "name": "tokenId",
          "type": "uint256"
        }
      ],
      "name": "transferFrom",
      "outputs": [],
      "stateMutability": "nonpayable",
      "type": "function"
    },
    {
      "inputs": [
        {
          "internalType": "address",
          "name": "newOwner",
          "type": "address"
        }
      ],
      "name": "transferOwnership",
      "outputs": [],
      "stateMutability": "nonpayable",
      "type": "function"
    },
    {
      "inputs": [],
      "name": "unpause",
      "outputs": [],
      "stateMutability": "nonpayable",
      "type": "function"
    },
    {
      "inputs": [],
      "name": "withdraw",
      "outputs": [],
      "stateMutability": "payable",
      "type": "function"
    }
  ],
  "bytecode": "0x608060405266b1a2bc2ec50000600c55612710600d556014600e553480156200002757600080fd5b506040518060400160405280600681526020017f436f6c6f727300000000000000000000000000000000000000000000000000008152506040518060400160405280600381526020017f434f4c00000000000000000000000000000000000000000000000000000000008152508160009080519060200190620000ac929190620001d7565b508060019080519060200190620000c5929190620001d7565b5050506000600b60006101000a81548160ff02191690831515021790555062000103620000f76200010960201b60201c565b6200011160201b60201c565b620002ec565b600033905090565b6000600b60019054906101000a900473ffffffffffffffffffffffffffffffffffffffff16905081600b60016101000a81548173ffffffffffffffffffffffffffffffffffffffff021916908373ffffffffffffffffffffffffffffffffffffffff1602179055508173ffffffffffffffffffffffffffffffffffffffff168173ffffffffffffffffffffffffffffffffffffffff167f8be0079c531659141344cd1fd0a4f28419497f9722a3daafe3b4186f6b6457e060405160405180910390a35050565b828054620001e59062000287565b90600052602060002090601f01602090048101928262000209576000855562000255565b82601f106200022457805160ff191683800117855562000255565b8280016001018555821562000255579182015b828111156200025457825182559160200191906001019062000237565b5b50905062000264919062000268565b5090565b5b808211156200028357600081600090555060010162000269565b5090565b60006002820490506001821680620002a057607f821691505b60208210811415620002b757620002b6620002bd565b5b50919050565b7f4e487b7100000000000000000000000000000000000000000000000000000000600052602260045260246000fd5b61416e80620002fc6000396000f3fe6080604052600436106101b75760003560e01c80634f6ccce7116100ec57806395d89b411161008a578063c87b56dd11610064578063c87b56dd146105b8578063d5abeb01146105f5578063e985e9c514610620578063f2fde38b1461065d576101b7565b806395d89b411461053b578063a22cb46514610566578063b88d4fde1461058f576101b7565b806370a08231116100c657806370a08231146104a5578063715018a6146104e25780638456cb59146104f95780638da5cb5b14610510576101b7565b80634f6ccce7146104005780635c975abb1461043d5780636352211e14610468576101b7565b8063239c70ae116101595780633ccfd60b116101335780633ccfd60b1461039a5780633f4ba83a146103a457806340c10f19146103bb57806342842e0e146103d7576101b7565b8063239c70ae1461030957806323b872dd146103345780632f745c591461035d576101b7565b8063095ea7b311610195578063095ea7b31461026157806313faede61461028a578063162094c4146102b557806318160ddd146102de576101b7565b806301ffc9a7146101bc57806306fdde03146101f9578063081812fc14610224575b600080fd5b3480156101c857600080fd5b506101e360048036038101906101de9190612dc1565b610686565b6040516101f09190613348565b60405180910390f35b34801561020557600080fd5b5061020e610698565b60405161021b9190613363565b60405180910390f35b34801561023057600080fd5b5061024b60048036038101906102469190612e13565b61072a565b60405161025891906132e1565b60405180910390f35b34801561026d57600080fd5b5061028860048036038101906102839190612d85565b6107af565b005b34801561029657600080fd5b5061029f6108c7565b6040516102ac9190613665565b60405180910390f35b3480156102c157600080fd5b506102dc60048036038101906102d79190612e3c565b6108cd565b005b3480156102ea57600080fd5b506102f36109a9565b6040516103009190613665565b60405180910390f35b34801561031557600080fd5b5061031e6109b6565b60405161032b9190613665565b60405180910390f35b34801561034057600080fd5b5061035b60048036038101906103569190612c7f565b6109bc565b005b34801561036957600080fd5b50610384600480360381019061037f9190612d85565b610a1c565b6040516103919190613665565b60405180910390f35b6103a2610ac1565b005b3480156103b057600080fd5b506103b9610bbd565b005b6103d560048036038101906103d09190612d85565b610c43565b005b3480156103e357600080fd5b506103fe60048036038101906103f99190612c7f565b610d16565b005b34801561040c57600080fd5b5061042760048036038101906104229190612e13565b610d36565b6040516104349190613665565b60405180910390f35b34801561044957600080fd5b50610452610dcd565b60405161045f9190613348565b60405180910390f35b34801561047457600080fd5b5061048f600480360381019061048a9190612e13565b610de4565b60405161049c91906132e1565b60405180910390f35b3480156104b157600080fd5b506104cc60048036038101906104c79190612c1a565b610e96565b6040516104d99190613665565b60405180910390f35b3480156104ee57600080fd5b506104f7610f4e565b005b34801561050557600080fd5b5061050e610fd6565b005b34801561051c57600080fd5b5061052561105c565b60405161053291906132e1565b60405180910390f35b34801561054757600080fd5b50610550611086565b60405161055d9190613363565b60405180910390f35b34801561057257600080fd5b5061058d60048036038101906105889190612d49565b611118565b005b34801561059b57600080fd5b506105b660048036038101906105b19190612cce565b611299565b005b3480156105c457600080fd5b506105df60048036038101906105da9190612e13565b6112fb565b6040516105ec9190613363565b60405180910390f35b34801561060157600080fd5b5061060a61130d565b6040516106179190613665565b60405180910390f35b34801561062c57600080fd5b5061064760048036038101906106429190612c43565b611313565b6040516106549190613348565b60405180910390f35b34801561066957600080fd5b50610684600480360381019061067f9190612c1a565b6113a7565b005b60006106918261149f565b9050919050565b6060600080546106a790613920565b80601f01602080910402602001604051908101604052809291908181526020018280546106d390613920565b80156107205780601f106106f557610100808354040283529160200191610720565b820191906000526020600020905b81548152906001019060200180831161070357829003601f168201915b5050505050905090565b600061073582611519565b610774576040517f08c379a000000000000000000000000000000000000000000000000000000000815260040161076b90613565565b60405180910390fd5b6004600083815260200190815260200160002060009054906101000a900473ffffffffffffffffffffffffffffffffffffffff169050919050565b60006107ba82610de4565b90508073ffffffffffffffffffffffffffffffffffffffff168373ffffffffffffffffffffffffffffffffffffffff16141561082b576040517f08c379a0000000000000000000000000000000000000000000000000000000008152600401610822906135e5565b60405180910390fd5b8073ffffffffffffffffffffffffffffffffffffffff1661084a611585565b73ffffffffffffffffffffffffffffffffffffffff161480610879575061087881610873611585565b611313565b5b6108b8576040517f08c379a00000000000000000000000000000000000000000000000000000000081526004016108af906134a5565b60405180910390fd5b6108c2838361158d565b505050565b600c5481565b6108d5611585565b73ffffffffffffffffffffffffffffffffffffffff166108f361105c565b73ffffffffffffffffffffffffffffffffffffffff1614610949576040517f08c379a000000000000000000000000000000000000000000000000000000000815260040161094090613585565b60405180910390fd5b6000610954836112fb565b9050600081511461099a576040517f08c379a000000000000000000000000000000000000000000000000000000000815260040161099190613605565b60405180910390fd5b6109a48383611646565b505050565b6000600880549050905090565b600e5481565b6109cd6109c7611585565b826116ba565b610a0c576040517f08c379a0000000000000000000000000000000000000000000000000000000008152600401610a0390613625565b60405180910390fd5b610a17838383611798565b505050565b6000610a2783610e96565b8210610a68576040517f08c379a0000000000000000000000000000000000000000000000000000000008152600401610a5f906133a5565b60405180910390fd5b600660008473ffffffffffffffffffffffffffffffffffffffff1673ffffffffffffffffffffffffffffffffffffffff168152602001908152602001600020600083815260200190815260200160002054905092915050565b610ac9611585565b73ffffffffffffffffffffffffffffffffffffffff16610ae761105c565b73ffffffffffffffffffffffffffffffffffffffff1614610b3d576040517f08c379a0000000000000000000000000000000000000000000000000000000008152600401610b3490613585565b60405180910390fd5b6000610b4761105c565b73ffffffffffffffffffffffffffffffffffffffff1647604051610b6a906132cc565b60006040518083038185875af1925050503d8060008114610ba7576040519150601f19603f3d011682016040523d82523d6000602084013e610bac565b606091505b5050905080610bba57600080fd5b50565b610bc5611585565b73ffffffffffffffffffffffffffffffffffffffff16610be361105c565b73ffffffffffffffffffffffffffffffffffffffff1614610c39576040517f08c379a0000000000000000000000000000000000000000000000000000000008152600401610c3090613585565b60405180910390fd5b610c416119f4565b565b6000610c4d6109a9565b905060008211610c5c57600080fd5b600e54821115610c6b57600080fd5b600d548282610c7a9190613755565b1115610c8557600080fd5b610c8d61105c565b73ffffffffffffffffffffffffffffffffffffffff163373ffffffffffffffffffffffffffffffffffffffff1614610cda5781600c54610ccd91906137dc565b341015610cd957600080fd5b5b6000600190505b828111610d1057610cfd848284610cf89190613755565b611a96565b8080610d0890613983565b915050610ce1565b50505050565b610d3183838360405180602001604052806000815250611299565b505050565b6000610d406109a9565b8210610d81576040517f08c379a0000000000000000000000000000000000000000000000000000000008152600401610d7890613645565b60405180910390fd5b60088281548110610dbb577f4e487b7100000000000000000000000000000000000000000000000000000000600052603260045260246000fd5b90600052602060002001549050919050565b6000600b60009054906101000a900460ff16905090565b6000806002600084815260200190815260200160002060009054906101000a900473ffffffffffffffffffffffffffffffffffffffff169050600073ffffffffffffffffffffffffffffffffffffffff168173ffffffffffffffffffffffffffffffffffffffff161415610e8d576040517f08c379a0000000000000000000000000000000000000000000000000000000008152600401610e84906134e5565b60405180910390fd5b80915050919050565b60008073ffffffffffffffffffffffffffffffffffffffff168273ffffffffffffffffffffffffffffffffffffffff161415610f07576040517f08c379a0000000000000000000000000000000000000000000000000000000008152600401610efe906134c5565b60405180910390fd5b600360008373ffffffffffffffffffffffffffffffffffffffff1673ffffffffffffffffffffffffffffffffffffffff168152602001908152602001600020549050919050565b610f56611585565b73ffffffffffffffffffffffffffffffffffffffff16610f7461105c565b73ffffffffffffffffffffffffffffffffffffffff1614610fca576040517f08c379a0000000000000000000000000000000000000000000000000000000008152600401610fc190613585565b60405180910390fd5b610fd46000611ab4565b565b610fde611585565b73ffffffffffffffffffffffffffffffffffffffff16610ffc61105c565b73ffffffffffffffffffffffffffffffffffffffff1614611052576040517f08c379a000000000000000000000000000000000000000000000000000000000815260040161104990613585565b60405180910390fd5b61105a611b7a565b565b6000600b60019054906101000a900473ffffffffffffffffffffffffffffffffffffffff16905090565b60606001805461109590613920565b80601f01602080910402602001604051908101604052809291908181526020018280546110c190613920565b801561110e5780601f106110e35761010080835404028352916020019161110e565b820191906000526020600020905b8154815290600101906020018083116110f157829003601f168201915b5050505050905090565b611120611585565b73ffffffffffffffffffffffffffffffffffffffff168273ffffffffffffffffffffffffffffffffffffffff16141561118e576040517f08c379a000000000000000000000000000000000000000000000000000000000815260040161118590613445565b60405180910390fd5b806005600061119b611585565b73ffffffffffffffffffffffffffffffffffffffff1673ffffffffffffffffffffffffffffffffffffffff16815260200190815260200160002060008473ffffffffffffffffffffffffffffffffffffffff1673ffffffffffffffffffffffffffffffffffffffff16815260200190815260200160002060006101000a81548160ff0219169083151502179055508173ffffffffffffffffffffffffffffffffffffffff16611248611585565b73ffffffffffffffffffffffffffffffffffffffff167f17307eab39ab6107e8899845ad3d59bd9653f200f220920489ca2b5937696c318360405161128d9190613348565b60405180910390a35050565b6112aa6112a4611585565b836116ba565b6112e9576040517f08c379a00000000000000000000000000000000000000000000000000000000081526004016112e090613625565b60405180910390fd5b6112f584848484611c1d565b50505050565b606061130682611c79565b9050919050565b600d5481565b6000600560008473ffffffffffffffffffffffffffffffffffffffff1673ffffffffffffffffffffffffffffffffffffffff16815260200190815260200160002060008373ffffffffffffffffffffffffffffffffffffffff1673ffffffffffffffffffffffffffffffffffffffff16815260200190815260200160002060009054906101000a900460ff16905092915050565b6113af611585565b73ffffffffffffffffffffffffffffffffffffffff166113cd61105c565b73ffffffffffffffffffffffffffffffffffffffff1614611423576040517f08c379a000000000000000000000000000000000000000000000000000000000815260040161141a90613585565b60405180910390fd5b600073ffffffffffffffffffffffffffffffffffffffff168173ffffffffffffffffffffffffffffffffffffffff161415611493576040517f08c379a000000000000000000000000000000000000000000000000000000000815260040161148a906133e5565b60405180910390fd5b61149c81611ab4565b50565b60007f780e9d63000000000000000000000000000000000000000000000000000000007bffffffffffffffffffffffffffffffffffffffffffffffffffffffff1916827bffffffffffffffffffffffffffffffffffffffffffffffffffffffff19161480611512575061151182611dcb565b5b9050919050565b60008073ffffffffffffffffffffffffffffffffffffffff166002600084815260200190815260200160002060009054906101000a900473ffffffffffffffffffffffffffffffffffffffff1673ffffffffffffffffffffffffffffffffffffffff1614159050919050565b600033905090565b816004600083815260200190815260200160002060006101000a81548173ffffffffffffffffffffffffffffffffffffffff021916908373ffffffffffffffffffffffffffffffffffffffff160217905550808273ffffffffffffffffffffffffffffffffffffffff1661160083610de4565b73ffffffffffffffffffffffffffffffffffffffff167f8c5be1e5ebec7d5bd14f71427d1e84f3dd0314c0f7b2291e5b200ac8c7c3b92560405160405180910390a45050565b61164f82611519565b61168e576040517f08c379a000000000000000000000000000000000000000000000000000000000815260040161168590613505565b60405180910390fd5b80600a600084815260200190815260200160002090805190602001906116b5929190612a3e565b505050565b60006116c582611519565b611704576040517f08c379a00000000000000000000000000000000000000000000000000000000081526004016116fb90613465565b60405180910390fd5b600061170f83610de4565b90508073ffffffffffffffffffffffffffffffffffffffff168473ffffffffffffffffffffffffffffffffffffffff16148061177e57508373ffffffffffffffffffffffffffffffffffffffff166117668461072a565b73ffffffffffffffffffffffffffffffffffffffff16145b8061178f575061178e8185611313565b5b91505092915050565b8273ffffffffffffffffffffffffffffffffffffffff166117b882610de4565b73ffffffffffffffffffffffffffffffffffffffff161461180e576040517f08c379a0000000000000000000000000000000000000000000000000000000008152600401611805906135a5565b60405180910390fd5b600073ffffffffffffffffffffffffffffffffffffffff168273ffffffffffffffffffffffffffffffffffffffff16141561187e576040517f08c379a000000000000000000000000000000000000000000000000000000000815260040161187590613425565b60405180910390fd5b611889838383611ead565b61189460008261158d565b6001600360008573ffffffffffffffffffffffffffffffffffffffff1673ffffffffffffffffffffffffffffffffffffffff16815260200190815260200160002060008282546118e49190613836565b925050819055506001600360008473ffffffffffffffffffffffffffffffffffffffff1673ffffffffffffffffffffffffffffffffffffffff168152602001908152602001600020600082825461193b9190613755565b92505081905550816002600083815260200190815260200160002060006101000a81548173ffffffffffffffffffffffffffffffffffffffff021916908373ffffffffffffffffffffffffffffffffffffffff160217905550808273ffffffffffffffffffffffffffffffffffffffff168473ffffffffffffffffffffffffffffffffffffffff167fddf252ad1be2c89b69c2b068fc378daa952ba7f163c4a11628f55a4df523b3ef60405160405180910390a4505050565b6119fc610dcd565b611a3b576040517f08c379a0000000000000000000000000000000000000000000000000000000008152600401611a3290613385565b60405180910390fd5b6000600b60006101000a81548160ff0219169083151502179055507f5db9ee0a495bf2e6ff9c91a7834c1ba4fdd244a5e8aa4e537bd38aeae4b073aa611a7f611585565b604051611a8c91906132e1565b60405180910390a1565b611ab0828260405180602001604052806000815250611f05565b5050565b6000600b60019054906101000a900473ffffffffffffffffffffffffffffffffffffffff16905081600b60016101000a81548173ffffffffffffffffffffffffffffffffffffffff021916908373ffffffffffffffffffffffffffffffffffffffff1602179055508173ffffffffffffffffffffffffffffffffffffffff168173ffffffffffffffffffffffffffffffffffffffff167f8be0079c531659141344cd1fd0a4f28419497f9722a3daafe3b4186f6b6457e060405160405180910390a35050565b611b82610dcd565b15611bc2576040517f08c379a0000000000000000000000000000000000000000000000000000000008152600401611bb990613485565b60405180910390fd5b6001600b60006101000a81548160ff0219169083151502179055507f62e78cea01bee320cd4e420270b5ea74000d11b0c9f74754ebdbfc544b05a258611c06611585565b604051611c1391906132e1565b60405180910390a1565b611c28848484611798565b611c3484848484611f60565b611c73576040517f08c379a0000000000000000000000000000000000000000000000000000000008152600401611c6a906133c5565b60405180910390fd5b50505050565b6060611c8482611519565b611cc3576040517f08c379a0000000000000000000000000000000000000000000000000000000008152600401611cba90613545565b60405180910390fd5b6000600a60008481526020019081526020016000208054611ce390613920565b80601f0160208091040260200160405190810160405280929190818152602001828054611d0f90613920565b8015611d5c5780601f10611d3157610100808354040283529160200191611d5c565b820191906000526020600020905b815481529060010190602001808311611d3f57829003601f168201915b505050505090506000611d6d6120f7565b9050600081511415611d83578192505050611dc6565b600082511115611db8578082604051602001611da09291906132a8565b60405160208183030381529060405292505050611dc6565b611dc18461210e565b925050505b919050565b60007f80ac58cd000000000000000000000000000000000000000000000000000000007bffffffffffffffffffffffffffffffffffffffffffffffffffffffff1916827bffffffffffffffffffffffffffffffffffffffffffffffffffffffff19161480611e9657507f5b5e139f000000000000000000000000000000000000000000000000000000007bffffffffffffffffffffffffffffffffffffffffffffffffffffffff1916827bffffffffffffffffffffffffffffffffffffffffffffffffffffffff1916145b80611ea65750611ea5826121b5565b5b9050919050565b611eb5610dcd565b15611ef5576040517f08c379a0000000000000000000000000000000000000000000000000000000008152600401611eec90613485565b60405180910390fd5b611f0083838361221f565b505050565b611f0f8383612333565b611f1c6000848484611f60565b611f5b576040517f08c379a0000000000000000000000000000000000000000000000000000000008152600401611f52906133c5565b60405180910390fd5b505050565b6000611f818473ffffffffffffffffffffffffffffffffffffffff16612501565b156120ea578373ffffffffffffffffffffffffffffffffffffffff1663150b7a02611faa611585565b8786866040518563ffffffff1660e01b8152600401611fcc94939291906132fc565b602060405180830381600087803b158015611fe657600080fd5b505af192505050801561201757506040513d601f19601f820116820180604052508101906120149190612dea565b60015b61209a573d8060008114612047576040519150601f19603f3d011682016040523d82523d6000602084013e61204c565b606091505b50600081511415612092576040517f08c379a0000000000000000000000000000000000000000000000000000000008152600401612089906133c5565b60405180910390fd5b805181602001fd5b63150b7a0260e01b7bffffffffffffffffffffffffffffffffffffffffffffffffffffffff1916817bffffffffffffffffffffffffffffffffffffffffffffffffffffffff1916149150506120ef565b600190505b949350505050565b606060405180602001604052806000815250905090565b606061211982611519565b612158576040517f08c379a000000000000000000000000000000000000000000000000000000000815260040161214f906135c5565b60405180910390fd5b60006121626120f7565b9050600081511161218257604051806020016040528060008152506121ad565b8061218c84612514565b60405160200161219d9291906132a8565b6040516020818303038152906040525b915050919050565b60007f01ffc9a7000000000000000000000000000000000000000000000000000000007bffffffffffffffffffffffffffffffffffffffffffffffffffffffff1916827bffffffffffffffffffffffffffffffffffffffffffffffffffffffff1916149050919050565b61222a8383836126c1565b600073ffffffffffffffffffffffffffffffffffffffff168373ffffffffffffffffffffffffffffffffffffffff16141561226d57612268816126c6565b6122ac565b8173ffffffffffffffffffffffffffffffffffffffff168373ffffffffffffffffffffffffffffffffffffffff16146122ab576122aa838261270f565b5b5b600073ffffffffffffffffffffffffffffffffffffffff168273ffffffffffffffffffffffffffffffffffffffff1614156122ef576122ea8161287c565b61232e565b8273ffffffffffffffffffffffffffffffffffffffff168273ffffffffffffffffffffffffffffffffffffffff161461232d5761232c82826129bf565b5b5b505050565b600073ffffffffffffffffffffffffffffffffffffffff168273ffffffffffffffffffffffffffffffffffffffff1614156123a3576040517f08c379a000000000000000000000000000000000000000000000000000000000815260040161239a90613525565b60405180910390fd5b6123ac81611519565b156123ec576040517f08c379a00000000000000000000000000000000000000000000000000000000081526004016123e390613405565b60405180910390fd5b6123f860008383611ead565b6001600360008473ffffffffffffffffffffffffffffffffffffffff1673ffffffffffffffffffffffffffffffffffffffff16815260200190815260200160002060008282546124489190613755565b92505081905550816002600083815260200190815260200160002060006101000a81548173ffffffffffffffffffffffffffffffffffffffff021916908373ffffffffffffffffffffffffffffffffffffffff160217905550808273ffffffffffffffffffffffffffffffffffffffff16600073ffffffffffffffffffffffffffffffffffffffff167fddf252ad1be2c89b69c2b068fc378daa952ba7f163c4a11628f55a4df523b3ef60405160405180910390a45050565b600080823b905060008111915050919050565b6060600082141561255c576040518060400160405280600181526020017f300000000000000000000000000000000000000000000000000000000000000081525090506126bc565b600082905060005b6000821461258e57808061257790613983565b915050600a8261258791906137ab565b9150612564565b60008167ffffffffffffffff8111156125d0577f4e487b7100000000000000000000000000000000000000000000000000000000600052604160045260246000fd5b6040519080825280601f01601f1916602001820160405280156126025781602001600182028036833780820191505090505b5090505b600085146126b55760018261261b9190613836565b9150600a8561262a91906139cc565b60306126369190613755565b60f81b818381518110612672577f4e487b7100000000000000000000000000000000000000000000000000000000600052603260045260246000fd5b60200101907effffffffffffffffffffffffffffffffffffffffffffffffffffffffffffff1916908160001a905350600a856126ae91906137ab565b9450612606565b8093505050505b919050565b505050565b6008805490506009600083815260200190815260200160002081905550600881908060018154018082558091505060019003906000526020600020016000909190919091505550565b6000600161271c84610e96565b6127269190613836565b905060006007600084815260200190815260200160002054905081811461280b576000600660008673ffffffffffffffffffffffffffffffffffffffff1673ffffffffffffffffffffffffffffffffffffffff168152602001908152602001600020600084815260200190815260200160002054905080600660008773ffffffffffffffffffffffffffffffffffffffff1673ffffffffffffffffffffffffffffffffffffffff168152602001908152602001600020600084815260200190815260200160002081905550816007600083815260200190815260200160002081905550505b6007600084815260200190815260200160002060009055600660008573ffffffffffffffffffffffffffffffffffffffff1673ffffffffffffffffffffffffffffffffffffffff16815260200190815260200160002060008381526020019081526020016000206000905550505050565b600060016008805490506128909190613836565b90506000600960008481526020019081526020016000205490506000600883815481106128e6577f4e487b7100000000000000000000000000000000000000000000000000000000600052603260045260246000fd5b90600052602060002001549050806008838154811061292e577f4e487b7100000000000000000000000000000000000000000000000000000000600052603260045260246000fd5b9060005260206000200181905550816009600083815260200190815260200160002081905550600960008581526020019081526020016000206000905560088054806129a3577f4e487b7100000000000000000000000000000000000000000000000000000000600052603160045260246000fd5b6001900381819060005260206000200160009055905550505050565b60006129ca83610e96565b905081600660008573ffffffffffffffffffffffffffffffffffffffff1673ffffffffffffffffffffffffffffffffffffffff168152602001908152602001600020600083815260200190815260200160002081905550806007600084815260200190815260200160002081905550505050565b828054612a4a90613920565b90600052602060002090601f016020900481019282612a6c5760008555612ab3565b82601f10612a8557805160ff1916838001178555612ab3565b82800160010185558215612ab3579182015b82811115612ab2578251825591602001919060010190612a97565b5b509050612ac09190612ac4565b5090565b5b80821115612add576000816000905550600101612ac5565b5090565b6000612af4612aef846136a5565b613680565b905082815260208101848484011115612b0c57600080fd5b612b178482856138de565b509392505050565b6000612b32612b2d846136d6565b613680565b905082815260208101848484011115612b4a57600080fd5b612b558482856138de565b509392505050565b600081359050612b6c816140dc565b92915050565b600081359050612b81816140f3565b92915050565b600081359050612b968161410a565b92915050565b600081519050612bab8161410a565b92915050565b600082601f830112612bc257600080fd5b8135612bd2848260208601612ae1565b91505092915050565b600082601f830112612bec57600080fd5b8135612bfc848260208601612b1f565b91505092915050565b600081359050612c1481614121565b92915050565b600060208284031215612c2c57600080fd5b6000612c3a84828501612b5d565b91505092915050565b60008060408385031215612c5657600080fd5b6000612c6485828601612b5d565b9250506020612c7585828601612b5d565b9150509250929050565b600080600060608486031215612c9457600080fd5b6000612ca286828701612b5d565b9350506020612cb386828701612b5d565b9250506040612cc486828701612c05565b9150509250925092565b60008060008060808587031215612ce457600080fd5b6000612cf287828801612b5d565b9450506020612d0387828801612b5d565b9350506040612d1487828801612c05565b925050606085013567ffffffffffffffff811115612d3157600080fd5b612d3d87828801612bb1565b91505092959194509250565b60008060408385031215612d5c57600080fd5b6000612d6a85828601612b5d565b9250506020612d7b85828601612b72565b9150509250929050565b60008060408385031215612d9857600080fd5b6000612da685828601612b5d565b9250506020612db785828601612c05565b9150509250929050565b600060208284031215612dd357600080fd5b6000612de184828501612b87565b91505092915050565b600060208284031215612dfc57600080fd5b6000612e0a84828501612b9c565b91505092915050565b600060208284031215612e2557600080fd5b6000612e3384828501612c05565b91505092915050565b60008060408385031215612e4f57600080fd5b6000612e5d85828601612c05565b925050602083013567ffffffffffffffff811115612e7a57600080fd5b612e8685828601612bdb565b9150509250929050565b612e998161386a565b82525050565b612ea88161387c565b82525050565b6000612eb982613707565b612ec3818561371d565b9350612ed38185602086016138ed565b612edc81613ab9565b840191505092915050565b6000612ef282613712565b612efc8185613739565b9350612f0c8185602086016138ed565b612f1581613ab9565b840191505092915050565b6000612f2b82613712565b612f35818561374a565b9350612f458185602086016138ed565b80840191505092915050565b6000612f5e601483613739565b9150612f6982613aca565b602082019050919050565b6000612f81602b83613739565b9150612f8c82613af3565b604082019050919050565b6000612fa4603283613739565b9150612faf82613b42565b604082019050919050565b6000612fc7602683613739565b9150612fd282613b91565b604082019050919050565b6000612fea601c83613739565b9150612ff582613be0565b602082019050919050565b600061300d602483613739565b915061301882613c09565b604082019050919050565b6000613030601983613739565b915061303b82613c58565b602082019050919050565b6000613053602c83613739565b915061305e82613c81565b604082019050919050565b6000613076601083613739565b915061308182613cd0565b602082019050919050565b6000613099603883613739565b91506130a482613cf9565b604082019050919050565b60006130bc602a83613739565b91506130c782613d48565b604082019050919050565b60006130df602983613739565b91506130ea82613d97565b604082019050919050565b6000613102602e83613739565b915061310d82613de6565b604082019050919050565b6000613125602083613739565b915061313082613e35565b602082019050919050565b6000613148603183613739565b915061315382613e5e565b604082019050919050565b600061316b602c83613739565b915061317682613ead565b604082019050919050565b600061318e602083613739565b915061319982613efc565b602082019050919050565b60006131b1602983613739565b91506131bc82613f25565b604082019050919050565b60006131d4602f83613739565b91506131df82613f74565b604082019050919050565b60006131f7602183613739565b915061320282613fc3565b604082019050919050565b600061321a601483613739565b915061322582614012565b602082019050919050565b600061323d60008361372e565b91506132488261403b565b600082019050919050565b6000613260603183613739565b915061326b8261403e565b604082019050919050565b6000613283602c83613739565b915061328e8261408d565b604082019050919050565b6132a2816138d4565b82525050565b60006132b48285612f20565b91506132c08284612f20565b91508190509392505050565b60006132d782613230565b9150819050919050565b60006020820190506132f66000830184612e90565b92915050565b60006080820190506133116000830187612e90565b61331e6020830186612e90565b61332b6040830185613299565b818103606083015261333d8184612eae565b905095945050505050565b600060208201905061335d6000830184612e9f565b92915050565b6000602082019050818103600083015261337d8184612ee7565b905092915050565b6000602082019050818103600083015261339e81612f51565b9050919050565b600060208201905081810360008301526133be81612f74565b9050919050565b600060208201905081810360008301526133de81612f97565b9050919050565b600060208201905081810360008301526133fe81612fba565b9050919050565b6000602082019050818103600083015261341e81612fdd565b9050919050565b6000602082019050818103600083015261343e81613000565b9050919050565b6000602082019050818103600083015261345e81613023565b9050919050565b6000602082019050818103600083015261347e81613046565b9050919050565b6000602082019050818103600083015261349e81613069565b9050919050565b600060208201905081810360008301526134be8161308c565b9050919050565b600060208201905081810360008301526134de816130af565b9050919050565b600060208201905081810360008301526134fe816130d2565b9050919050565b6000602082019050818103600083015261351e816130f5565b9050919050565b6000602082019050818103600083015261353e81613118565b9050919050565b6000602082019050818103600083015261355e8161313b565b9050919050565b6000602082019050818103600083015261357e8161315e565b9050919050565b6000602082019050818103600083015261359e81613181565b9050919050565b600060208201905081810360008301526135be816131a4565b9050919050565b600060208201905081810360008301526135de816131c7565b9050919050565b600060208201905081810360008301526135fe816131ea565b9050919050565b6000602082019050818103600083015261361e8161320d565b9050919050565b6000602082019050818103600083015261363e81613253565b9050919050565b6000602082019050818103600083015261365e81613276565b9050919050565b600060208201905061367a6000830184613299565b92915050565b600061368a61369b565b90506136968282613952565b919050565b6000604051905090565b600067ffffffffffffffff8211156136c0576136bf613a8a565b5b6136c982613ab9565b9050602081019050919050565b600067ffffffffffffffff8211156136f1576136f0613a8a565b5b6136fa82613ab9565b9050602081019050919050565b600081519050919050565b600081519050919050565b600082825260208201905092915050565b600081905092915050565b600082825260208201905092915050565b600081905092915050565b6000613760826138d4565b915061376b836138d4565b9250827fffffffffffffffffffffffffffffffffffffffffffffffffffffffffffffffff038211156137a05761379f6139fd565b5b828201905092915050565b60006137b6826138d4565b91506137c1836138d4565b9250826137d1576137d0613a2c565b5b828204905092915050565b60006137e7826138d4565b91506137f2836138d4565b9250817fffffffffffffffffffffffffffffffffffffffffffffffffffffffffffffffff048311821515161561382b5761382a6139fd565b5b828202905092915050565b6000613841826138d4565b915061384c836138d4565b92508282101561385f5761385e6139fd565b5b828203905092915050565b6000613875826138b4565b9050919050565b60008115159050919050565b60007fffffffff0000000000000000000000000000000000000000000000000000000082169050919050565b600073ffffffffffffffffffffffffffffffffffffffff82169050919050565b6000819050919050565b82818337600083830152505050565b60005b8381101561390b5780820151818401526020810190506138f0565b8381111561391a576000848401525b50505050565b6000600282049050600182168061393857607f821691505b6020821081141561394c5761394b613a5b565b5b50919050565b61395b82613ab9565b810181811067ffffffffffffffff8211171561397a57613979613a8a565b5b80604052505050565b600061398e826138d4565b91507fffffffffffffffffffffffffffffffffffffffffffffffffffffffffffffffff8214156139c1576139c06139fd565b5b600182019050919050565b60006139d7826138d4565b91506139e2836138d4565b9250826139f2576139f1613a2c565b5b828206905092915050565b7f4e487b7100000000000000000000000000000000000000000000000000000000600052601160045260246000fd5b7f4e487b7100000000000000000000000000000000000000000000000000000000600052601260045260246000fd5b7f4e487b7100000000000000000000000000000000000000000000000000000000600052602260045260246000fd5b7f4e487b7100000000000000000000000000000000000000000000000000000000600052604160045260246000fd5b6000601f19601f8301169050919050565b7f5061757361626c653a206e6f7420706175736564000000000000000000000000600082015250565b7f455243373231456e756d657261626c653a206f776e657220696e646578206f7560008201527f74206f6620626f756e6473000000000000000000000000000000000000000000602082015250565b7f4552433732313a207472616e7366657220746f206e6f6e20455243373231526560008201527f63656976657220696d706c656d656e7465720000000000000000000000000000602082015250565b7f4f776e61626c653a206e6577206f776e657220697320746865207a65726f206160008201527f6464726573730000000000000000000000000000000000000000000000000000602082015250565b7f4552433732313a20746f6b656e20616c7265616479206d696e74656400000000600082015250565b7f4552433732313a207472616e7366657220746f20746865207a65726f2061646460008201527f7265737300000000000000000000000000000000000000000000000000000000602082015250565b7f4552433732313a20617070726f766520746f2063616c6c657200000000000000600082015250565b7f4552433732313a206f70657261746f7220717565727920666f72206e6f6e657860008201527f697374656e7420746f6b656e0000000000000000000000000000000000000000602082015250565b7f5061757361626c653a2070617573656400000000000000000000000000000000600082015250565b7f4552433732313a20617070726f76652063616c6c6572206973206e6f74206f7760008201527f6e6572206e6f7220617070726f76656420666f7220616c6c0000000000000000602082015250565b7f4552433732313a2062616c616e636520717565727920666f7220746865207a6560008201527f726f206164647265737300000000000000000000000000000000000000000000602082015250565b7f4552433732313a206f776e657220717565727920666f72206e6f6e657869737460008201527f656e7420746f6b656e0000000000000000000000000000000000000000000000602082015250565b7f45524337323155524953746f726167653a2055524920736574206f66206e6f6e60008201527f6578697374656e7420746f6b656e000000000000000000000000000000000000602082015250565b7f4552433732313a206d696e7420746f20746865207a65726f2061646472657373600082015250565b7f45524337323155524953746f726167653a2055524920717565727920666f722060008201527f6e6f6e6578697374656e7420746f6b656e000000000000000000000000000000602082015250565b7f4552433732313a20617070726f76656420717565727920666f72206e6f6e657860008201527f697374656e7420746f6b656e0000000000000000000000000000000000000000602082015250565b7f4f776e61626c653a2063616c6c6572206973206e6f7420746865206f776e6572600082015250565b7f4552433732313a207472616e73666572206f6620746f6b656e2074686174206960008201527f73206e6f74206f776e0000000000000000000000000000000000000000000000602082015250565b7f4552433732314d657461646174613a2055524920717565727920666f72206e6f60008201527f6e6578697374656e7420746f6b656e0000000000000000000000000000000000602082015250565b7f4552433732313a20617070726f76616c20746f2063757272656e74206f776e6560008201527f7200000000000000000000000000000000000000000000000000000000000000602082015250565b7f546f6b656e55524920616c726561647920736574000000000000000000000000600082015250565b50565b7f4552433732313a207472616e736665722063616c6c6572206973206e6f74206f60008201527f776e6572206e6f7220617070726f766564000000000000000000000000000000602082015250565b7f455243373231456e756d657261626c653a20676c6f62616c20696e646578206f60008201527f7574206f6620626f756e64730000000000000000000000000000000000000000602082015250565b6140e58161386a565b81146140f057600080fd5b50565b6140fc8161387c565b811461410757600080fd5b50565b61411381613888565b811461411e57600080fd5b50565b61412a816138d4565b811461413557600080fd5b5056fea2646970667358221220f9f9e2de0ef29d170c341654908338fa4cd7ef27a40b4339e3fe44928b2bc6e664736f6c63430008020033",
  "linkReferences": {},
  "deployedLinkReferences": {}
}